:020000040800F2
:100000000808002039020008251D00081D1D0008F1
:10001000211D000871040008ED1E0008000000000A
:100020000000000000000000000000002D1D00087E
:100030008D04000800000000291D0008311D000883
:10004000530200085302000853020008530200083C
:10005000530200085302000853020008530200082C
:10006000530200085302000853020008530200081C
:10007000530200085302000853020008530200080C
:100080005302000853020008530200080000000059
:100090000000000000000000000000005302000803
:1000A00053020008530200085302000853020008DC
:1000B00053020008530200085302000853020008CC
:1000C00053020008530200085302000853020008BC
:1000D0005302000853020008530200080000000009
:1000E00053020008530200085302000800000000F9
:1000F00000000000000000000000000053020008A3
:1001000000000000530200085302000853020008D8
:1001100000000000000000000000000000000000DF
:100120007504000853020008530200085302000837
:100130005302000800000000000000000000000062
:100140000000000000000000000000005302000852
:1001500053020008810400085302000853020008FB
:1001600053020008530200080000000000000000D5
:10017000000000000000000000000000000000007F
:100180000000000053020008000000000000000012
:10019000530200085302000800F002F800F03CF897
:1001A0000AA090E8000C82448344AAF10107DA45D2
:1001B00001D100F031F8AFF2090EBAE80F0013F0E8
:1001C000010F18BFFB1A43F001031847F02100008C
:1001D00010220000103A24BF78C878C1FAD852071C
:1001E00024BF30C830C144BF04680C6070470000B1
:1001F0000023002400250026103A28BF78C1FBD830
:10020000520728BF30C148BF0B6070471FB502F0CE
:10021000BBF81FBD10B510BD00F0A9F81146FFF7DF
:10022000F5FF01F065FE00F0C7F803B4FFF7F2FF39
:1002300003BC00F0CFF80000094880470948004798
:10024000FEE7FEE7FEE7FEE7FEE7FEE7FEE7FEE786
:10025000FEE7FEE704480549054A064B70470000E3
:10026000D91D000899010008080200200808002094
:10027000080400200804002053EA020C00F0698002
:100280002DE9F04B4FF00006002B1FBFB3FA83F5AA
:1002900003FA05F424FA05F65E4012BF1643B2FADB
:1002A00082F502FA05F4C5F120051EBF22FA05FC0D
:1002B00044EA0C04203556EA044C4FEA144418BFB3
:1002C000641C4FF000084FF00009904271EB030CE2
:1002D00039D3002919BFB1FA81F701FA07F6B0FA4C
:1002E00080F700FA07F6C7F120071EBF20FA07FCC7
:1002F00046EA0C062037B6FBF4FCA7EB0507103FD7
:1003000007F01F0BCBF120062CFA06F60CFA0BFBBC
:1003100044BFB3460026202FA4BF5E464FF0000B1B
:100320005BEA060C08BF4FF0010B19EB0B0948EB19
:100330000608ABFB027C06FB02CC0BFB03CCC01B0C
:1003400071EB0C01C1E70B46024641464846BDE849
:10035000F08B13B5084318BF4FF0FF300146AFF3E1
:100360000080BDE81C407047704770477047754675
:1003700000F02CF8AE4605006946534620F0070011
:10038000854618B020B5FFF765FFBDE820404FF067
:1003900000064FF000074FF000084FF0000BAC468E
:1003A000ACE8C009ACE8C009ACE8C009ACE8C009D9
:1003B00021F007018D46704710B50446AFF3008069
:1003C0002046BDE81040FFF730BF000000487047EE
:1003D0002800002001491820ABBEFEE726000200DD
:1003E000704700000146806B036C026C13F0500FE5
:1003F00008D0D20648BF00F00DB9806BC26C084629
:10040000104700BF42F40071016401688A6812F06D
:10041000405F01D000F0FAB8027E002AFAD1CA6A21
:1004200012F4700F02D08A685205F3D44A6822F0A1
:1004300020024A60016C21F480710164016CC904DE
:1004400048BF00F0E3B8016C41F00101016400F025
:10045000DDB80000806B40210164416C41F0040173
:10046000416400F0D7B80000806B00F0D1B8000004
:10047000FEE7000040F2F800C2F2000000F086BA89
:1004800040F25810C2F2000000F080BA704700003D
:1004900072B600BFFEE7000070B581B00022009286
:1004A00090F83C20012A03D10221084601B070BD1A
:1004B0000E6801220A2E80F83C2009D3B2B2520005
:1004C000D0F800E012FA86F21E3A0EF10C0305E0B5
:1004D000D0F800E006EB46020EF110034FF0070CD7
:1004E0001D680CFA02F4A5431D608D681C6805FAAE
:1004F00002F222431A60496806290FD801EB8101F4
:100500004A1F71461F2351F8345F934025EA0303C5
:100510000B60B3B203FA02F214E000BF01EB8103F7
:100520000C29B2B204D8714651F8304F233B03E096
:10053000714651F82C4F413B1F259D4024EA05058B
:100540009A400D600B6842F2043CC4F2010C1A435D
:10055000ACF541739E450A6006D0002180F83C103E
:10056000084601B070BD00BF1221112EC1F200017A
:1005700018BF8E423AD1DCF800208E4222F480026D
:10058000CCF80020DCF8002042F40002CCF8002077
:10059000E3D140F22001C2F2000109684DF6836206
:1005A000C4F21B32A1FB0212910C01EB8101490044
:1005B000009100990029D0D000990139009100994B
:1005C0000029CAD000990139009100990029C4D0AE
:1005D00000990139009100990029BED00099013994
:1005E000009100990029E7D1B7E700BF122EB4D1DE
:1005F000DCF8001021F40001CCF80010DCF8001049
:1006000041F48001CCF80010A7E70000704700001B
:100610007047000070470000002804BF01207047A9
:1006200010B50446006C00283ED0206CC00645D4AE
:10063000206C41F202118843023042F204312064FE
:10064000C4F20101086820F4403008600A6894E8A8
:1006500009101A43D4F810E00A604168012321F41C
:10066000807141604168C0F6007341EA0E2141602B
:10067000416821F040714160416841EA0C014160EC
:10068000816821F400618160E168826811438160C2
:10069000A16A8268994222F070628260826813D1F6
:1006A00022F0405119E000BF204600F065F800201C
:1006B000606484F83C00206CC006B9D5012000219C
:1006C00084F83C1010BD00BF11438160816821F0A7
:1006D00040518160E16A826811438160816821F044
:1006E000020181608168227E94F8203041EA420153
:1006F0008160416883B141F40061416041684EF21C
:10070000000221F460414160616ACFF6FF724368E4
:1007100002EB4131194301E021F400614160C16AFB
:1007200040F2000C21F47001C162E2696169CFF608
:10073000F07CC36A0CEB02521A43C262826822F454
:100740000072826094F83020836843EA422282601B
:10075000826822F480628260826842EA812181603C
:1007600000206064216C012262F3010121640021F8
:1007700084F83C1010BD000070B586B0044642F20B
:1007800000002168C4F2010000268142059604960B
:1007900002D006B070BD00BF43F630010096C4F22F
:1007A00002014A6900F5604042F480724A614A6978
:1007B00002F480720092009A00960A6842F00102E8
:1007C0000A60096801F00101009100997C21019102
:1007D0000321CDE9021601A900F0CEFA40F2F80596
:1007E00046F21040C2F20005C4F202004FF48061EC
:1007F000C5E9000605F110004FF400624FF4005304
:100800004FF4807C80E80E102846C5E90266C5E9F1
:10081000086600F09BF9002818BFFFF739FEA563B2
:10082000AC6306B070BD0000B0B582B004460020D5
:10083000019094F83C00012802D1022002B0B0BD22
:1008400094460A460120216884F83C008868C00765
:1008500029D188684DF6836540F00100886040F238
:100860002000C2F200000068C4F21B35A0FB0505A1
:10087000A80C00EB400001900198A0B1019801384C
:100880000190019878B1019801380190019850B118
:10089000019801380190019828B101980138019020
:1008A00001980028EAD18868C00503D5886820F43B
:1008B000807088608D68206CED0709D140F01000D1
:1008C0002064606C40F001006064002002B0B0BDA4
:1008D00040F20175A84300F5807020644868400527
:1008E00004D5206C012565F30D302064256C0020B3
:1008F000ED044FF0000544BF656C25F00605656406
:1009000084F83C00A06B40F2E53540F26943C0F644
:100910000005C0F60003C0E90F5340F25543C0F68E
:100920000003C3646FF022030B604B6842F20805BA
:1009300043F080634B608B68C4F2010543F480731D
:100940008B604C31634600F0B3F9D5F8FC12206897
:10095000C9060FD0A5F108018842B6D1286810F069
:10096000405FB2D1286840F080402860002002B08B
:10097000B0BD00BF816811F0405FA6D1816841F031
:1009800080418160002002B0B0BD0000F0B581B0B0
:1009900004460020009040F22000C2F200000268ED
:1009A000D4E9166048F2B51337680821C1F64E3312
:1009B00081403942A2FB03250CD0226813685B07F3
:1009C00008D5136823F004031360B160616D41F032
:1009D0000101616501218140394208D022685269D4
:1009E000120604D5B160616D41F002016165042118
:1009F0008140394208D022681268920704D5B1605C
:100A0000616D41F00401616510218140394217D0C8
:100A100020680268120713D5B160026801685203AA
:100A200008D4C90508D4016821F008010160216CCF
:100A300021B905E008033FD4216C09B1204688475D
:100A4000E16D202000FA01F23A4241D020680368AB
:100A5000DB063DD5B26094F835300268052B1BD11A
:100A600022F016020260426922F080024261226C8A
:100A70000AB9A26C1AB1026822F0080202603F2093
:100A80008840B060012084F83500216D00200029E5
:100A900084F8340052D157E00168520310D4C905DC
:100AA00012D4016821F010010160012084F83500A2
:100AB000002084F8340007E0A16C0029BED1BFE714
:100AC000080301D4616C00E0E16B09B1204688475E
:100AD000606DC8B3606DC0072ED0052084F8350066
:100AE0002068A90A026822F001020260009A01321D
:100AF0008A4200921AD80268D20717D0009A0132AF
:100B00008A42009212D80268D2070FD0009A0132AE
:100B10008A4200920AD80268D20707D0009A0132AE
:100B20008A42009202D80268D207DFD1012084F8FD
:100B30003500002084F83400E16C29B1204601B072
:100B4000BDE8F040084700BF01B0F0BD2DE9F0411D
:100B5000044600F0EBF9ECB10546022084F83500BC
:100B60000020216884F83400086820F00100086043
:100B700021680868C00711D000F0D8F9401B05288B
:100B8000F6D9032520230320636584F83550BDE89A
:100B9000F08100BF0120BDE8F08100BF086848F285
:100BA0003F02CFF21002D4E9013500EA020C04F151
:100BB0000C0898E8C10143EA0C032B431843D4E91D
:100BC000072E304338431043626A40EA0E00042A7D
:100BD00040EA08031CD1206BD4E90A2E40EA0E003B
:100BE000184308604869BEF1000F20F0030040EA96
:100BF000020040F0040C11D0B8F5005F36D0B8F117
:100C0000000F45D1022A46D0012A3BD032B942E03A
:100C10000B60486920F0070040EA020C01F0F80080
:100C20004AF6AB221038CAF6AA22A0FB02231A0900
:100C300042F2B233C0F600039A5C40F2FF335F2801
:100C40004FF03F00C1F814C021EA030100FA02F09E
:100C500088BF0431C4E916128860002301250020F2
:100C6000636584F83550BDE8F08100BF032AD5D80C
:100C7000012540230120DFE802F0030E030500BF39
:100C800082E700BFAEF1C070B0FA80F0400904E026
:100C9000032A04D3C2D1CEF300600028BED00125C0
:100CA00040230120636584F83550BDE8F0810000E1
:100CB00070B590F834C0BCF1010F46D04FF0010C74
:100CC00080F834C0D0F858E090F835C0BCF1010F7E
:100CD00038D14FF0020C80F835C04FF0000CC0F84E
:100CE00054C0D0F800C08468056CC06DDCF80060AA
:100CF000402C26F48026CCF80060CCF804300B465B
:100D000004BF13460A463F2101FA00F0CCF8083030
:100D1000CCF80C20CEF80800DCF8000040F01600FB
:100D2000CCF800002DB1DCF8000040F00800CCF851
:100D30000000DCF8000040F00100CCF800000020CA
:100D400070BD00BF002180F83410022070BD00008B
:100D5000B0B5044600F0EAF8054640F21800C2F2C9
:100D600000000078611C18BF044400BF00F0DEF8EA
:100D7000401BA042FAD3B0BD2DE9F04F82B000F184
:100D80003E4241F2000502F1FF77C4F2020507225C
:100D900043F6004E4FEAB726A84208BF0422C4F229
:100DA000010E042E38BF4FEAB72201250026002786
:100DB0004FF00008009208E008F101080437B8F18C
:100DC000100F06F1020600F0A7800C6805FA08F97A
:100DD00014EA090FF0D0D1F804B003220BF0030C91
:100DE000ACF10104B240012C6FEA020A10D882680B
:100DF000CC6802EA0A02B440224382604268CBF324
:100E0000001422EA090204FA08F42243426005E0D1
:100E1000BCF1030F02D14FF0030C20E0C2688C68D4
:100E200002EA0A02B4402243BCF1020FC26016D1AA
:100E30006FF0030202EA58020244D2F820C007F021
:100E40001C050F230C69AB402CEA030304FA05F5DB
:100E50002B431362D1F804B001250BF0030C026898
:100E60000CFA06F302EA0A021A431BF4403F02603E
:100E7000A2D0002243F644030192C4F202031A688E
:100E80004FF6084C42F480421A601A68CFF6FF7C95
:100E900002F480420192019A28F00302724452F84F
:100EA0000C3007F00C050F24AC40A343009C04FA5F
:100EB00005F52B4342F80C30DEF808204B6842EA77
:100EC000090543F60C4CDC0258BF22EA0905CEF8AE
:100ED0000850C4F2010CDCF800209C0242EA09052B
:100EE00058BF22EA0905CCF80050DEF804209C0324
:100EF00042EA090558BF22EA0905CEF80450DEF897
:100F00000020DB0342EA090558BF22EA0905CEF8B2
:100F10000050012550E700BF02B0BDE8F08F00008F
:100F2000002A08BF090481617047000040F20020D8
:100F3000C2F200000068704740F2180040F2002141
:100F4000C2F20000C2F2000100780A681044086092
:100F50007047000080B543F60040C4F2020001680B
:100F600041F400710160016841F480610160016831
:100F700041F480710160032000F088F80F2000F038
:100F800005F800F027F8002080BD000070B540F2A1
:100F90001806C2F2000640F220013278C2F20001C7
:100FA0004FF47A730968B3FBF2F20446B1FBF2F135
:100FB000084600F01BFB0F2C4FF0010508D838B98C
:100FC0004FF0FF3021460022002500F033F8746016
:100FD000284670BD82B0002043F640010190C4F263
:100FE00002014A6842F480424A604A6802F4804240
:100FF0000192019A0090086840F0805008600868EB
:1010000000F080500090009802B07047002848BF60
:101010007047C1B200F01F00012202FA00F04EF248
:101020000012CEF2000242EAD10121F00301086071
:101030007047000010B54EF60C5CCEF2000CDCF8E8
:101040000030C3F3022E8EF00704042C28BF0424C2
:10105000BEF103034FF0FF3E0EFA04F438BF002345
:10106000A14399400EFA03F39A43114300F00F0293
:1010700000F160430901043A03F564436244002827
:1010800048BF02F10C03197010BD00004EF60C5160
:10109000CEF200010A684FF6FF031A4060F30A22FD
:1010A00042F0806040F0FD70086070472DE9F0412B
:1010B000002800F08B8043F60808C4F202080446BA
:1010C000D8F8F8030D4600F00700884207D288F8E8
:1010D000F853D8F8F80300F00700A84276D120684A
:1010E000810717D5410705D5D8F8001041F4E05124
:1010F000C8F80010010705D5D8F8001041F4604188
:10110000C8F80010D8F80010A26821F0F0011143CF
:10111000C8F80010C0073FD1D8F8F80300F0070066
:10112000A84207D988F8F853D8F8F80300F0070068
:10113000A8424BD12068410707D5D8F80010E268D3
:1011400021F4E0511143C8F80010000708D5D8F881
:101150000000216920F4604040EAC100C8F80000A6
:1011600000F054F8D8F8001042F2A232C1F3031193
:10117000C0F60002515C40F2200220FA01F140F278
:101180001C00C2F200000068C2F200021160FFF70A
:10119000FDFE0020BDE8F0816068811E022907D2B3
:1011A00058F8081C89015CBF0120BDE8F08111E0FE
:1011B000012807D158F8081C89035CBF0120BDE84D
:1011C000F08107E058F8081C890703D40120BDE826
:1011D000F08100BFD8F8001021F003010843C8F8DF
:1011E0000000FFF7A3FE064641F28837D8F800005A
:1011F000616800F00C00B0EB810F8DD0FFF796FE18
:10120000801BB842F2D90320BDE8F08110B543F647
:101210000404C4F20204606800F00C0008280BD03B
:10122000042819BF42F20040C0F2F40047F6400023
:10123000C0F27D1010BD00BF2068216823684902FC
:1012400047F64001C0F27D1100F03F02C3F3881061
:101250005CBF42F20041C0F2F401A1FB0001002397
:10126000FFF70AF821680222C1F3014102EB4101B4
:10127000B0FBF1F010BD00002DE9F04182B0002874
:1012800068D00446007843F60006C007C4F20206A0
:101290000BD0B06800F00C00042840F09F8030684C
:1012A000800302D56068002854D0207880071AD5C2
:1012B000B06810F00C0F09D0B06800F00C000828DE
:1012C00040F0A6807068400200F1A280306880077C
:1012D00002D5E06801283DD13068216920F0F8008E
:1012E00040EAC10030602078000737D420784007FA
:1012F0004CD4A56955B3B06800F00C00082840F044
:10130000BB80012D26D07068E16900F480028A421A
:1013100020D1216A00F03F028A421BD147F6C071FA
:10132000626A0140B1EB821F14D1A16A4FF6FF73CC
:10133000C903994300F44032A1F580318A4209D1B2
:10134000E16A00F07060B0EB016F03D1002002B0E1
:10135000BDE8F081012002B0BDE8F081606900289D
:1013600040F20000C4F2472076D00121C0F8801E70
:10137000FFF7DCFD054600BF706F8007B6D4FFF7AE
:10138000D5FD401B0228F7D9DDE000BF306C10F01E
:1013900080580AD100200190306C40F080503064B9
:1013A000306C00F080500190019847F20007C4F2C1
:1013B00000073868C00541D4386840F48070386050
:1013C000FFF7B4FD054600BF3868C00536D4FFF707
:1013D000ADFD401B0228F7D9B5E000BFB06800F0B2
:1013E0000C00082803D1706840023FF558AF6068D0
:1013F000B0F5803F07D0B0F5A02F40F08D80306869
:1014000040F480203060306840F4803030608DE0FF
:10141000E068002852D00020C4F24720012101607A
:10142000FFF784FD054600BF306880073FF554AFE5
:10143000FFF77CFD401B0228F6D984E0A068012854
:1014400005D005284ED1306F40F004003067306F72
:1014500040F0010030674FE00021C0F8801EFFF728
:1014600065FD0546706F80077FF540AFFFF75EFDB5
:10147000401B0228F6D966E00027C4F24727002067
:101480003866FFF753FD022D05460BD13068800109
:101490005ED5FFF74BFD401B02284FF00300F5D946
:1014A00055E700BF306880017FF550AFFFF73EFD84
:1014B000401B02284FF00300F4D948E70020C4F293
:1014C000472000210160FFF731FD054630688007A5
:1014D0007FF509AFFFF72AFD401B02284FF00300FC
:1014E000F4D934E7316F002821F001013167316F01
:1014F00021F0040131674DD0FFF718FD054641F298
:10150000883700BF306F800756D4FFF70FFD401BB0
:10151000B842F7D917E000BF3168002821F48031C4
:101520003160316821F4802131604FD0FFF7FEFC3B
:10153000054600BF306880033FF5B7AEFFF7F6FC05
:10154000401B6428F6D9032002B0BDE8F08100BF3B
:1015500004F11C052FCD084340EA8210D9034FF651
:10156000FF729143A1F5803140EA05600843706045
:1015700001203866FFF7DAFC044600BF30688001BE
:101580003FF5E4AEFFF7D2FC001B02284FF003004A
:10159000F4D9DCE6FFF7CAFC054641F2883700BF04
:1015A000306F800708D5FFF7C1FC401BB8424FF0F1
:1015B0000300F5D9CBE600BFB8F1000F7FF499AE78
:1015C000306C20F08050306493E600BFFFF7AEFC33
:1015D000054600BF306880037FF567AEFFF7A6FCC5
:1015E000401B64284FF00300F4D9B0E6411E0020F0
:1015F000B0EB116F1CBF012070474EF21002CEF20B
:10160000000251604EF62351CEF20001F0230B7020
:101610000721906011607047B0B590F83C20012A16
:1016200004BF0220B0BD01F108053CCDD1E900CED8
:1016300023F47C5322F470521A432EF4F0431A43DD
:101640002CF4E0431A4324F4C0431A432A43C969E3
:1016500022F48042036811435964002180F83C1051
:101660000846B0BD10B590F83C20012A4FF00202A8
:101670003ED080F83D200268D2F804E0D2F808C0DD
:101680000C682EF07003234340F6FF34C4F20004CC
:10169000A242536010DCB2F1804F1ED040F20043F2
:1016A000C4F200039A4218D040F60003C4F20003CB
:1016B0009A4212D016E000BF40F60043C4F2000385
:1016C0009A420AD044F20003C4F201039A4204D0C1
:1016D0000023C4F201039A4204D149682CF080032C
:1016E000194391600121002280F83D1080F83C20D0
:1016F000104610BD002804BF0120704710B50446F5
:1017000090F83D0028B9002084F83C00204600F005
:101710001FF8022084F83D002068211D00F066FBC0
:10172000012084F8460084F83E0084F83F0084F8E5
:10173000400084F8410084F8420084F8430084F8B3
:10174000440084F8450084F83D00002010BD0000EE
:10175000B0B582B0044600680021C4F2010188429D
:1017600002D002B0B0BD00BF002043F6440101909A
:10177000C4F202010A6840F2581542F001020A6000
:101780000968C2F2000501F001010191019946F2D8
:10179000A041C4F202014FF40072C5E9001005F146
:1017A00010014FF400634FF4005C4FF4807EC5E9F4
:1017B000020281E80950C5E908002846FFF7C6F98A
:1017C000002818BFFEF764FEC4E90955E562AC6362
:1017D00002B0B0BD80B590F83C20012A4FF0020263
:1017E00000F0C28080F83D20D0F800C04FF677723C
:1017F000DCF8083023EA0202CCF808200B684F2BF3
:1018000028DC1F2B44DD202B45D0302B43D0402B30
:1018100040F0AC80D1F804E0C968DCF82030DCF896
:10182000202022F00102CCF82020DCF8182022F041
:10183000F00242EA011123F00A0242EA0E02CCF859
:101840001810CCF82020DCF8081041F0470121F0F6
:10185000300180E06F2B27DDB3F5005F48D0B3F592
:10186000805F7AD0702B40F08180D1E901E3C968B4
:10187000DCF8082043EA0E0322F47F4243EA012108
:101880001143CCF80810DCF8081041F0770162E051
:101890000BB1102B6AD1DCF8081021F0700119434C
:1018A00041F0070157E000BF502B35D0602B5DD1D0
:1018B000D1F804E0C968DCF82030DCF8202022F000
:1018C0001002CCF82020DCF8182022F4704242EA02
:1018D000013123F0A00242EA0E12CCF81810CCF825
:1018E0002020DCF8081041F0670121F0100132E0FF
:1018F000D1E901E3C968DCF8082043EA0E0322F4C9
:101900007F4243EA01211143CCF80810DCF80810AB
:1019100041F480411FE000BFD1F804E0C968DCF861
:101920002030DCF8202022F00102CCF82020DCF866
:10193000182022F0F00242EA011123F00A0242EAE2
:101940000E02CCF81810CCF82020DCF8081041F07A
:10195000570121F02001CCF808100022012180F865
:101960003D10002180F83C10104680BD0122F5E7B3
:1019700080B586B001680020C4F20100814201D028
:1019800006B080BD002143F630020191C4F202028C
:10199000136800F5803043F001031360126802F011
:1019A00001020192019A4FF4407201920222CDE9A4
:1019B000022104910121059101A9FFF7DDF906B08B
:1019C00080BD00002DE9F04390F83C30012B04BFAE
:1019D0000220BDE8F0834FEAB202032A3AD8DFE8DA
:1019E00002F003417DB900BF036800261D6A1A6A30
:1019F000C4F2010622F001021A621A465C6852F82B
:101A000018CFB3428E68D1F800E025F0020545EA10
:101A100006050CD1CE68D1E9057824F4407425F090
:101A20000C0526F004063C43354344EA08042CF038
:101A3000730747EA0E075C609F614F6809695F633F
:101A40001D629F6947F008079F619F6927F004079F
:101A50009F61AEE00121002280F83C200846BDE8ED
:101A6000F08300BF036800261D6A1A6AC4F20106EB
:101A700022F010021A621A46D3F804C052F8184F26
:101A8000B3428E68D1F800E025F0200545EA06153E
:101A900010D1CE68D1E9058725F0C0096FF0400567
:101AA00005EA06152CF4406647EA080745EA0905E9
:101AB00046EA870C24F4E64444EA0E27C3F804C03F
:101AC0009F614F6809699F631D629F6947F40067C2
:101AD0009F619F6927F480679F6169E00368002622
:101AE0001D6A1A6AC4F2010622F480721A621A464A
:101AF000D3F804C052F81CEFB3428E680C6825F48A
:101B0000007545EA062511D1CE68D1E9058725F48F
:101B10004069360240F2FF4526EA05052CF440569E
:101B200047EA080745EA090546EA071C2EF073074D
:101B30002743C3F804C0DF614F680969DF631D6292
:101B4000DF6947F00807DF61DF6927F00407DF611D
:101B50002FE000BF03680027D3F820C01A6AC4F240
:101B6000010722F480521A621A465C6852F81C5F20
:101B7000D1F800E08E68BB4204D14F6924F4804460
:101B800044EA87142CF4005747EA063725F4E64662
:101B900046EA0E265C60DE614E6809691E641F62BB
:101BA000DF6947F40067DF61DF6927F48067DF6181
:101BB00009021368194311600021002280F83C20BB
:101BC0000846BDE8F0830000002804BF01207047EC
:101BD00010B5044690F83D0028B9002084F83C0078
:101BE000204600F01FF8022084F83D002068211DE7
:101BF00000F0FCF8012084F8460084F83E0084F8E8
:101C00003F0084F8400084F8410084F8420084F8E2
:101C1000430084F8440084F8450084F83D00002027
:101C200010BD00007047000041B1082910D0042900
:101C300014BF00F1410200F13F020BE090F83E209A
:101C4000012A1CBF01207047022280F83E2013E0C9
:101C500000F140021278012A1CBF012070470222C5
:101C6000082907D0042914BF80F8412080F83F20BC
:101C700002E000BF80F84020006801F01F0101224F
:101C8000036A8A4023EA02010162036A4421C4F222
:101C900001011A43A1F144039842026216D040F6B2
:101CA000FF31C4F2000188421ADCB0F1804F28D025
:101CB00040F20041C4F20001884222D040F6000107
:101CC000C4F2000188421CD022E000BF0A6842F43E
:101CD00000420A6040F6FF31C4F200018842E4DDB0
:101CE00040F60041C4F2000188420AD044F20001EB
:101CF000C4F20101884204D00021C4F201018842EB
:101D000006D1816801F00701062904BF0020704751
:101D1000016841F00101016000207047FEE700000A
:101D2000FEE70000FEE7000070470000704700007B
:101D3000FFF702B9B0B592B0002443F64000CDE9F8
:101D40000A44CDE908440594CDE90344CDE90144B2
:101D50000094C4F202000168022541F08051016044
:101D6000006800F080500090009847F20000009456
:101D7000C4F20000016841F440410160006800F4D1
:101D8000404000900098012006904FF4803007906A
:101D90004FF480000D9019200E909020CDE90F0592
:101DA0000420119006A80C95FFF766FA10B172B6E0
:101DB000FEE700BF0F20CDE901054FF48050CDE9CB
:101DC000040401A802210394FFF770F910B172B660
:101DD000FEE700BF12B0B0BD4EF68850CEF2000054
:101DE000016841F4700101607047000010B540F2D5
:101DF000FF7E0368C4F2000E40F2000C7045C4F28E
:101E0000010C1DDD40F60002C4F20002904220D019
:101E100060451ED040F60042C4F20002904218D045
:101E20004FF6FF72C4F2000290421CDC704525DCC4
:101E3000B0F1804F3AD040F20042C4F2000233E0E9
:101E4000B0F1804F05D040F20042C4F2000290424F
:101E5000E6D14A6823F0700313434FF6FF72C4F2D1
:101E600000029042E2DD44F2FF32C4F201029042ED
:101E700010DC60451AD044F2000213E040F6000284
:101E8000C4F20002904211D040F60042C4F20002B7
:101E90000AE000BF44F60002C4F20102904205D0FD
:101EA00044F20042C4F20102904203D1CA6823F412
:101EB0004073134323F080024B69D1F800E08C6833
:101EC0001A4360450260C462C0F828E002D1096983
:101ED000CCF83010012141610169C90708BF10BD6C
:101EE000016921F00101016110BD0000FEE7000061
:101EF00096B040F20044C4F20204FFF72BF8FFF75B
:101F000019FF002543F6300705950995C4F202072D
:101F100038684FF4704140F0800038603868002223
:101F200000F0800009900998099538684FF47046D0
:101F300040F001003860386800F00100099009980D
:101F40000995386840F002003860386800F00200F7
:101F5000099009982046FEF7E3FF0196012601A9A2
:101F60002046CDE902650495FEF706FF0195386825
:101F7000002140F4800038603868002200F48000BE
:101F8000019001983820FFF755F83820FFF73EF808
:101F9000452000210022FFF74DF84520FFF736F8D5
:101FA00040F2880AC2F2000AA4F56441504640F8A3
:101FB000281F0121C0F60071C0E90A15052104950A
:101FC000067680F82050C16180F83060C0E9015584
:101FD000C0E903564661FEF71FFB18B172B600BF99
:101FE000FEE700BF02270AF12805CDE901760326A6
:101FF00001A928460396FEF74FFA18B172B600BF42
:10200000FEE700BF01A92846CDE90167FEF744FAC3
:1020100010B172B6FEE700BF03200426029001A9AA
:1020200028460196FEF738FA10B172B6FEE700BFF7
:10203000052701A92846CDE90176FEF72DFA18B14A
:1020400072B600BFFEE700BF0620CDE9010701A977
:102050002846FEF721FA18B172B600BFFEE700BFAE
:1020600040F2B8100021A4F58232C2F2000040F222
:10207000CF2340F2F3171591CDE91311CDE91011DB
:102080000791C0E90023C0E90217C0E9041181618A
:10209000FFF730FB10B172B6FEE700BF4FF480507F
:1020A000129040F2B810C2F2000012A9FFF792FBA2
:1020B00010B172B6FEE700BF40F2B810C2F20000E5
:1020C000FFF782FD10B172B6FEE700BF40F2B81014
:1020D000C2F2000010A9FFF7C5FA18B172B600BF2E
:1020E000FEE700BF602009900020CDE90A00CDE99D
:1020F0000C00CDE90E0040F2B810C2F2000009A9B0
:102100000022FFF75FFC08B172B6FEE740F2B8109C
:10211000C2F2000009A90422FFF754FC10B172B604
:10212000FEE700BF00200590CDE90300CDE90100E6
:102130004FF40051089040F2B8100691C2F200002E
:1021400001A9FFF769FA08B172B6FEE740F2B818C4
:10215000C2F2000840466FF06309FFF709FC0AF17C
:10216000140128460522FEF75FFB40460021FFF7D9
:102170005BFD40460421FFF757FD20464FF4805198
:102180000022FEF7CDFE20464FF400510122FEF75B
:10219000C7FE20464FF480410022FEF7C1FE2046D4
:1021A0004FF400410122FEF7BBFE40F200059FED17
:1021B000758A4FF634484FF6384BC2F20005CFF619
:1021C000FE78CFF6FE7BB9EE009AB8EE00AAB8EE24
:1021D00008BABFEE00CAB0EE00DAB7EE00EAB1EE20
:1021E00000FAF0EE088A19E06A782978121A8AF85B
:1021F0000020DAF808008AF80110012802BF002147
:10220000AAF800100022D0B244F80800C8B244F87E
:102210000B0001208AED040AFEF79AFDBAF81400BB
:10222000A98988424FF0000038BF0120BAF8161083
:10223000EA89AAF81E0091424FF0000138BF01213F
:10224000BAF818202B8AAAF820109A424FF0000200
:1022500038BF0122BAF81A306F8AAAF82220BB428E
:102260004FF0000338BF0123BAF81C70AE8A490052
:1022700041EA8201B7424FF0000741EAC301AAF8E0
:10228000243038BF012741EA07110844411E1E29A6
:10229000AAF82670AAF8020037D80120B0EE480A42
:1022A000DFE801F01014182E331C312033333324AF
:1022B00033333328333333333333312C3333333302
:1022C00033313100B0EE490A1AE000BFB0EE4A0ADD
:1022D00016E000BFB0EE4B0A12E000BFB0EE4C0AB1
:1022E0000EE000BFB0EE4D0A0AE000BFB0EE4E0AAD
:1022F00006E000BFB0EE4F0A02E000BFB0EE680A91
:1023000000208AED030ACAF8080095ED010A95ED50
:10231000021AB8EEC02A9AED030A9AED043AB8EE12
:10232000C11A30EE433A23EE011A22EE002A32EEB1
:10233000011ABDEEC11A11EE100A6428AAF80400B1
:1023400002DD6421642004E0484504DA9C206FF03B
:102350006301AAF80410B5EE400AF1EE10FA3FF757
:1023600043AFB5EE400AF1EE10FA05DA6A78297843
:102370008AF8002001443CE7642164228AF80010B6
:1023800037E700BF00000000F1EE100A4FF6FF71C2
:10239000C0F2C03120EA010040F04070E1EE100AC6
:1023A000704700000000000000000102030406075F
:1023B000080900061016000610160000E0230008A9
:1023C0000000002028000000D401000808240008B4
:1023D00028000020E0070000F001000800000000D5
:1023E000646400002800000028000000A907A60778
:1023F000A707A507A70700000100000010000000C4
:082400000024F40000000000BC
:040000050800019955
:00000001FF
